:020000040000FA
:020000001828BE
:100008007E1480312100901E0A280B281628200013
:10001800901E0F281028162887311A2780312000B3
:10002800C201C20A7E100900192887317B27803156
:10003800FD00873178278031DA00873179278031D0
:10004800DB0087317A278031DC00203084000030E3
:10005800850023308731682780317E102000022EEA
:100068001530F8004B30F700BE30890B3928F70BF4
:100078003928F80B392800320030F0007030F100D0
:10008800873135278031F70077082000DC005C08CD
:1000980003194F285028562807305C02031C55289E
:1000A80056285828DC01DC0A5C08F7007708FD00B0
:1000B80086316926803104308631BF268031710847
:1000C800FA007008F900FB0120003F35203E860049
:1000D80087017908C03F7A08C13F0130F7007708E7
:1000E800FB0708307B02031C7A287B28682802302B
:1000F80022008E000230F8003830F700AD30890B4E
:100108008328F70B8328F80B83280000043022008B
:100118008E000230F8003830F700AD30890B922895
:10012800F70B9228F80B92280000083022008E0066
:100138000230F8003830F700AD30890BA128F70BF2
:10014800A128F80BA1280000103022008E000230F0
:10015800F8003830F700AD30890BB028F70BB0281D
:10016800F80BB0280000203022008E000230F80082
:100178003830F700AD30890BBF28F70BBF28F80BD4
:10018800BF2800007D30F0000030F1008631F026F5
:1001980080317D30F0000030F1008631DA26803180
:1001A8007F29203022008E000230F8003830F70016
:1001B800AD30890BDD28F70BDD28F80BDD280000B2
:1001C800103022008E000230F8003830F700AD30D1
:1001D800890BEC28F70BEC28F80BEC28000008300A
:1001E80022008E000230F8003830F700AD30890B5D
:1001F800FB28F70BFB28F80BFB2800000430220033
:100208008E000230F8003830F700AD30890B0A292B
:10021800F70B0A29F80B0A290000023022008E0089
:100228009F29203022008E000230F8003830F70075
:10023800AD30890B1D29F70B1D29F80B1D2900006E
:10024800103022008E000230F8003830F700AD3050
:10025800890B2C29F70B2C29F80B2C2900000830C6
:1002680022008E000230F8003830F700AD30890BDC
:100278003B29F70B3B29F80B3B29000004302200EF
:100288008E009F29203022008E000230F80038307E
:10029800F700AD30890B4E29F70B4E29F80B4E2984
:1002A8000000103022008E000230F8003830F700CD
:1002B800AD30890B5D29F70B5D29F80B5D2900002E
:1002C800083022008E009F29203022008E00023044
:1002D800F8003830F700AD30890B7029F70B70291A
:1002E800F80B70290000103022008E009F29203062
:1002F80022008E009F2920005C08F700F80178088A
:10030800003A031988299F297708013A0319D52843
:10031800033A03191529013A03194629073A03191B
:100328004629013A03196829033A03197B29013A36
:100338000319D5289F2920005C088431FC248031CA
:10034800080001302000B4070030B53D03305C02DE
:100358000318AF29B0290E2B02305C06031DB529FE
:10036800B629D12A41080319BA29BB29332A3508E5
:100378003702031DC12934083602031CC429C529C4
:10038800F6293608C3003708C400C501C601340879
:10039800F0003508F100F201F3010030F7000030F9
:1003A800F6000130F5009030F4008531CF25813119
:1003B80073082000CA007208C9007108C8007008D4
:1003C800C7008431A1248131903020004307D40034
:1003D8000130443DD5000030453DD6000030463D53
:1003E800D700AA2A3808C3003908C400C501C601C5
:1003F8003408F0003508F100F201F3010030F7008D
:100408000030F6000330F5002030F4008531CF25A8
:10041800813173082000CA007208C9007108C80039
:100428007008C7008431A1248131B0302000D00089
:100438000430D1000030D2000030D3004308D0028D
:100448004408D13B4508D23B4608D33B5308D70064
:100458005208D6005108D5005008D400AA2A3508F9
:100468003702031D392A34083602031C3C2A3D2A68
:100478007A2A3608C3003708C400C501C601340803
:10048800F0003508F100F201F3010030F700003008
:10049800F6000130F5009030F4008531CF25813128
:1004A80073082000CA007208C9007108C8007008E3
:1004B800C7008431A124813190302000D000013060
:1004C800D1000030D2000030D3004308D0024408E5
:1004D800D13B4508D23B4608D33B5308D7005208C6
:1004E800D6005108D5005008D400AA2A3808C300FD
:1004F8003908C400C501C6013408F0003508F10008
:10050800F201F3010030F7000030F6000330F50087
:100518002030F4008531CF25813173082000CA00CE
:100528007208C9007108C8007008C7008431A12486
:100538008131703020004307D400FE30443DD5009F
:10054800FF30453DD600FF30463DD7005708031D14
:10055800B82A5608031DB82A203054020330553BE8
:10056800031CB72AB82AC12A00302000D70000305F
:10057800D6000330D5002030D40020005508F10003
:100588005408F0008631F026813120005508F1002A
:100598005408F0008631DA26813120003908350206
:1005A800031DD82A38083402031CDB2ADC2A0E2B48
:1005B800B401B50141080319E22AE42A0130E52A09
:1005C8000030D0005008C1005C03031DEC2AED2A5E
:1005D8000E2B41080319F12AF22A012B2030F000D2
:1005E8000330F1008631F02681312030F0000330ED
:1005F800F1008631DA2681310E2B0030F000F1004F
:100608008631F02681310030F000F1008631DA269B
:1006180081310E2B080004308631BF2683317108E2
:100628002000C4007008C300C501C601033044029D
:10063800F13003194302031C222B232B272BF03004
:10064800C3000330C40007303F02031C2C2B2D2BA2
:100658002F2BBF01332B0130F4007408BF073F353F
:10066800203E860087014308C03F4408C13FC701B8
:100678003F35203E86008701403FF400413FF500AA
:100688007408C5077508C63D0130F4007408C7072B
:1006980008304702031C512B522B3C2B4608F5000F
:1006A8004508F400F536F40CF536F40CF536F40C80
:1006B8007408C5007508C600450E0F39C800460EF7
:1006C800F039C804460E0F39C9005B084906031DF6
:1006D8006F2B5A0848060319722B732B1F2C4908D5
:1006E800F5004808F400F40EF50EF030F50574082E
:1006F8000F39F504F030F4057408CA007508CB000A
:10070800FA3040020318892B8A2B8F2B0130F40012
:100718007408C007202C4908DB004808DA000330B9
:100728005C020318982B992BB22B490885004808BE
:1007380084008435850D213084078430853D003F51
:10074800B800013FB9003908F5003808F400F5365B
:10075800F40C7408B6007508B700202C05305C024C
:100768000318B72BB82BE82B03304B0221300319A1
:100778004A02031CC02BC12BC52B2030CA000330F2
:10078800CB0004305C06031DCA2BCB2BDA2B4B089D
:10079800F1004A08F0008631F02683312030F0005D
:1007A8000330F1008631DA268331202C4B08F10022
:1007B8004A08F0008631DA2683310030F000F10073
:1007C8008631F0268331202C05305C06031DED2B85
:1007D800EE2B1E2C4B08F5004A08F400F536F40CF5
:1007E800F536F40CF536F40C7408CA007508CB001D
:1007F8004A080E3E9E001E08F400F501F435F50D7A
:100808007408023EF6000030753DF7007608CA000D
:100818007708CB004B08F1004A08F0008631F02633
:10082800833120004B08F1004A08F0008631DA26AF
:100838008331202C202CC0010800A8341834A83497
:100848001834A8341834A8341834A834183449345F
:100858000C343234083426340634EC3404341B3473
:1008680004348534033415340334BD340234773406
:1008780002343E3402340E340234E5340134C334D5
:100888000134A53401348A340134733401345F34BB
:1008980001344C3401343B3401342C3401341F34DA
:1008A80001341234013407340134FC340034F33495
:1008B8000034EA340034E1340034DA340034D23419
:1008C8000034CC340034C5340034BF340034BA3476
:1008D8000034B5340034B0340034AB340034A634BA
:1008E8000034A23400349E3400349A3400349634F0
:1008F800003493340034903400348C340034893418
:1009080000348634003484340034813400347E3436
:1009180000347C340034793400347734003475344E
:10092800003473340034713400346F3400346D345F
:1009380000346B3400346934003400302000CE00B9
:100948000030CD000030CC000030CB004608450414
:10095800440443040319B12CB22CF32CCF01CF0A61
:10096800C02C0130C335C40DC50DC60D890BB62C7E
:100978000130FC007C08CF07C61FC32CC42CB52C43
:100988000130CB35CC0DCD0DCE0D890BC52C4608CD
:100998004A02031DD92C45084902031DD92C4408D5
:1009A8004802031DD92C43084702031CDC2CDD2C0C
:1009B800E62C4308C7024408C83B4508C93B46081B
:1009C800CA3B4B140130C636C50CC40CC30C890B8A
:1009D800E72C0130CF02031DF22CF32CC42C4E0857
:1009E800C6004D08C5004C08C4004B08C3000800E9
:1009F800F6002C009C139913322D0230F400740871
:100A08002000BC008631872684312000DC01DC0A06
:100A1800512D0430F40074082000BC00863187266C
:100A28008431512D0830F40074082000BC00122DC8
:100A38001030F40074082000BC0086316926843127
:100A4800512D2030F40074082000BC001F112C0028
:100A58009C13991321000E140C15512D7608F400DF
:100A6800F5017508003A03193A2D512D7408013A19
:100A78000319012D033A03190D2D013A0319162DF7
:100A8800073A0319162D013A03191C2D033A0319C5
:100A9800252D013A0319012D512D08007D0820004C
:100AA8005C060319582D592D8A2D3308031D652D11
:100AB800383030029C30313B1C30323B0318652DF6
:100AC800662D702D01302000B0070030B13D003098
:100AD800B23D0030B33D922D00302000B30000300D
:100AE800B2000030B1000030B0000030F0007030CB
:100AF800F1005C08F4007408F20086314B26853159
:100B080020005C08F4007408FD00922D0030B3004A
:100B18000030B2000030B1000030B0000800200002
:100B28000C18972D982DC12D64303E0203189D2D69
:100B38009E2DA72D0130F8007808BE07C52DA030DE
:100B48000032890BA42D20000C1CAB2DAC2DA32D3D
:100B58000130F8007808DC070030B3000030B2003C
:100B68000030B1000030B000FF30DA00FF30DB00A9
:100B78005C088431FC248531C52DBE0183310F23E7
:100B8800853120003C0822008E00853152258531B0
:100B980022008E0108000030FB000030FA0000300F
:100BA800F9000030F800701CDA2DDB2DE32D7408F5
:100BB800F8077508F93D7608FA3D7708FB3D0130DE
:100BC800F435F50DF60DF70D890BE42D0130F336EC
:100BD800F20CF10CF00C890BEB2D73087204710404
:100BE8007004031DF82DF92DD72D7B08F3007A0822
:100BF800F2007908F1007808F00008008631A32691
:100C0800863105302000D9000F30D800F130890B2B
:100C18000B2ED80B0B2ED90B0B2E8B170B178031E5
:100C28003420863120004203031D1B2E1C2E162E55
:100C38008131A52186312000C201640085319325C8
:100C48008631162E182822008C018E0111302100C1
:100C58008C008E0123008E0110308C00043024009B
:100C68008C0001308E00013025008C008E01373059
:100C780026008C003F308E003F3027008C003F302C
:100C88008E0003303D00A0000230920008000030C2
:100C98008B1B0130F300710831009200700891003D
:100CA80072089300151715158B1355309600AA3046
:100CB800960095149518612E622E5E2E1511730CF0
:100CC800031C8B1303188B17080020001F112C001E
:100CD8009C139913073020009F0080309E0002303B
:100CE800F0000130F1008631F02686310230F00044
:100CF8000130F1008631DA26863120001F152C00DC
:100D08009C179917080021000E100C1120001F11C4
:100D18002C009C139913053020009F00C7309E00BB
:100D2800C7302C009800C0309700C7309B00C030F7
:100D38009A0020001F152C009C179917080087316E
:100D480051278631863127268631873159278631C2
:100D58008731742786318731612786318731282783
:100D68008631873149278631873141278631873156
:100D7800062786310800F3007308F200F20DF20D21
:100D880021001D087206033972069D001D140D30DE
:100D9800890BCC2E000021009D149D18D42ED52E31
:100DA800D12E1C08F1001B08F00008007108F300A0
:100DB8007008F200F336F20CF336F20C72082C00CD
:100DC8009B0070080339F2000530F235FF3E031D21
:100DD800E92E72359A0008007108F3007008F200D5
:100DE800F336F20CF336F20C72082C0098007008F7
:100DF8000339F2000530F235FF3E031DFF2E723530
:100E080097000800623020009800FE309600950197
:100E18009012210090167C30F0000730F1008731E5
:100E28006E27873184302000970008002000901238
:100E38005D085E040319212F222F272F5E088A00E0
:100E48005D080A0087310800E03021009E009F01FC
:100E58009B019C0101309D001D08033910389D003D
:100E680008007108310092007008910015171514D8
:100E780000000000310013080800C73020009E0061
:100E88009D01911005309F00080010302C0099003A
:100E9800C7309800C03097000800320091019201D5
:100EA80093019401950196010800320099019B0174
:100EB8009D0107309F009E0108002C009C01C7304F
:100EC8009B00C0309A000800640080010131890B42
:100ED800692F003471082000DE007008DD0008006A
:100EE8001A30210097000800FF34FF340134013420
:020EF8000800F0
:020000040001F9
:08000E008C3FFB3FFF3FFF3F69
:00000001FF
